{
  "_format": "hh-sol-artifact-1",
  "contractName": "Election",
  "sourceName": "contracts/Election.sol",
  "abi": [
    {
      "inputs": [],
      "stateMutability": "nonpayable",
      "type": "constructor"
    },
    {
      "anonymous": false,
      "inputs": [
        {
          "indexed": false,
          "internalType": "string",
          "name": "name",
          "type": "string"
        },
        {
          "indexed": false,
          "internalType": "uint256",
          "name": "voteCount",
          "type": "uint256"
        }
      ],
      "name": "ElectResults",
      "type": "event"
    },
    {
      "inputs": [
        {
          "internalType": "uint256",
          "name": "candidateId",
          "type": "uint256"
        }
      ],
      "name": "addCandidate",
      "outputs": [],
      "stateMutability": "payable",
      "type": "function"
    },
    {
      "inputs": [
        {
          "internalType": "address",
          "name": "voter",
          "type": "address"
        }
      ],
      "name": "authorize",
      "outputs": [],
      "stateMutability": "payable",
      "type": "function"
    },
    {
      "inputs": [
        {
          "internalType": "uint256",
          "name": "",
          "type": "uint256"
        }
      ],
      "name": "candids",
      "outputs": [
        {
          "internalType": "uint256",
          "name": "name",
          "type": "uint256"
        },
        {
          "internalType": "uint256",
          "name": "voteCount",
          "type": "uint256"
        }
      ],
      "stateMutability": "view",
      "type": "function"
    },
    {
      "inputs": [],
      "name": "chairperson",
      "outputs": [
        {
          "internalType": "address",
          "name": "",
          "type": "address"
        }
      ],
      "stateMutability": "view",
      "type": "function"
    },
    {
      "inputs": [],
      "name": "getCandidateCount",
      "outputs": [
        {
          "internalType": "uint256",
          "name": "",
          "type": "uint256"
        }
      ],
      "stateMutability": "view",
      "type": "function"
    },
    {
      "inputs": [
        {
          "internalType": "address",
          "name": "voter_address",
          "type": "address"
        }
      ],
      "name": "getVotersWeight",
      "outputs": [
        {
          "internalType": "uint256",
          "name": "",
          "type": "uint256"
        }
      ],
      "stateMutability": "view",
      "type": "function"
    },
    {
      "inputs": [],
      "name": "getWinner",
      "outputs": [],
      "stateMutability": "view",
      "type": "function"
    },
    {
      "inputs": [],
      "name": "name",
      "outputs": [
        {
          "internalType": "string",
          "name": "",
          "type": "string"
        }
      ],
      "stateMutability": "view",
      "type": "function"
    },
    {
      "inputs": [],
      "name": "showCandidate",
      "outputs": [],
      "stateMutability": "view",
      "type": "function"
    },
    {
      "inputs": [
        {
          "internalType": "uint256",
          "name": "voteIndex",
          "type": "uint256"
        }
      ],
      "name": "voteCandidate",
      "outputs": [],
      "stateMutability": "nonpayable",
      "type": "function"
    },
    {
      "inputs": [
        {
          "internalType": "address",
          "name": "",
          "type": "address"
        }
      ],
      "name": "voters",
      "outputs": [
        {
          "internalType": "bool",
          "name": "voted",
          "type": "bool"
        },
        {
          "internalType": "uint256",
          "name": "voteIndex",
          "type": "uint256"
        },
        {
          "internalType": "uint256",
          "name": "weight",
          "type": "uint256"
        }
      ],
      "stateMutability": "view",
      "type": "function"
    }
  ],
  "bytecode": "0x608060405234801561001057600080fd5b5033600160006101000a81548173ffffffffffffffffffffffffffffffffffffffff021916908373ffffffffffffffffffffffffffffffffffffffff1602179055506112bb806100616000396000f3fe60806040526004361061009c5760003560e01c80638e7ea5b2116100645780638e7ea5b214610188578063a3ec138d1461019f578063b6a5d7de146101de578063bbe4524e146101fa578063e2121b8914610238578063e844d0971461024f5761009c565b806306fdde03146100a15780632e4176cf146100cc57806330a56347146100f757806341a59cc8146101225780638c08a4dc1461015f575b600080fd5b3480156100ad57600080fd5b506100b661026b565b6040516100c39190610dd0565b60405180910390f35b3480156100d857600080fd5b506100e16102f9565b6040516100ee9190610d7e565b60405180910390f35b34801561010357600080fd5b5061010c61031f565b6040516101199190610ed0565b60405180910390f35b34801561012e57600080fd5b5061014960048036038101906101449190610c17565b61032c565b6040516101569190610ed0565b60405180910390f35b34801561016b57600080fd5b5061018660048036038101906101819190610c40565b6103df565b005b34801561019457600080fd5b5061019d6106e0565b005b3480156101ab57600080fd5b506101c660048036038101906101c19190610c17565b610760565b6040516101d593929190610d99565b60405180910390f35b6101f860048036038101906101f39190610c17565b610797565b005b34801561020657600080fd5b50610221600480360381019061021c9190610c40565b610896565b60405161022f929190610eeb565b60405180910390f35b34801561024457600080fd5b5061024d6108ca565b005b61026960048036038101906102649190610c40565b610945565b005b6002805461027890611001565b80601f01602080910402602001604051908101604052809291908181526020018280546102a490611001565b80156102f15780601f106102c6576101008083540402835291602001916102f1565b820191906000526020600020905b8154815290600101906020018083116102d457829003601f168201915b505050505081565b600160009054906101000a900473ffffffffffffffffffffffffffffffffffffffff1681565b6000600480549050905090565b600061036c6040518060400160405280601581526020017f67657474696e6720766f746572732077656967687400000000000000000000008152506109f0565b6000600360008473ffffffffffffffffffffffffffffffffffffffff1673ffffffffffffffffffffffffffffffffffffffff1681526020019081526020016000206002015490506103d66040518060600160405280602d8152602001611259602d91398285610a89565b80915050919050565b60b46000546103ee9190610f30565b421161042f576040517f08c379a000000000000000000000000000000000000000000000000000000000815260040161042690610e90565b60405180910390fd5b61017c60005461043f9190610f30565b421115610481576040517f08c379a000000000000000000000000000000000000000000000000000000000815260040161047890610e50565b60405180910390fd5b600360003373ffffffffffffffffffffffffffffffffffffffff1673ffffffffffffffffffffffffffffffffffffffff16815260200190815260200160002060000160009054906101000a900460ff1615610511576040517f08c379a000000000000000000000000000000000000000000000000000000000815260040161050890610e70565b60405180910390fd5b6000600360003373ffffffffffffffffffffffffffffffffffffffff1673ffffffffffffffffffffffffffffffffffffffff168152602001908152602001600020600201541415610597576040517f08c379a000000000000000000000000000000000000000000000000000000000815260040161058e90610e30565b60405180910390fd5b6001600360003373ffffffffffffffffffffffffffffffffffffffff1673ffffffffffffffffffffffffffffffffffffffff16815260200190815260200160002060000160006101000a81548160ff02191690831515021790555080600360003373ffffffffffffffffffffffffffffffffffffffff1673ffffffffffffffffffffffffffffffffffffffff16815260200190815260200160002060010181905550600360003373ffffffffffffffffffffffffffffffffffffffff1673ffffffffffffffffffffffffffffffffffffffff16815260200190815260200160002060020154600482815481106106b6577f4e487b7100000000000000000000000000000000000000000000000000000000600052603260045260246000fd5b906000526020600020906002020160010160008282546106d69190610f30565b9250508190555050565b600160009054906101000a900473ffffffffffffffffffffffffffffffffffffffff1673ffffffffffffffffffffffffffffffffffffffff163373ffffffffffffffffffffffffffffffffffffffff161461073a57600080fd5b60005b60048054905081101561075d57808061075590611033565b91505061073d565b50565b60036020528060005260406000206000915090508060000160009054906101000a900460ff16908060010154908060020154905083565b600160009054906101000a900473ffffffffffffffffffffffffffffffffffffffff1673ffffffffffffffffffffffffffffffffffffffff163373ffffffffffffffffffffffffffffffffffffffff16146107f157600080fd5b600360008273ffffffffffffffffffffffffffffffffffffffff1673ffffffffffffffffffffffffffffffffffffffff16815260200190815260200160002060000160009054906101000a900460ff161561084b57600080fd5b6001600360008373ffffffffffffffffffffffffffffffffffffffff1673ffffffffffffffffffffffffffffffffffffffff1681526020019081526020016000206002018190555050565b600481815481106108a657600080fd5b90600052602060002090600202016000915090508060000154908060010154905082565b60005b6004805490508110156109425761092f8160048381548110610918577f4e487b7100000000000000000000000000000000000000000000000000000000600052603260045260246000fd5b906000526020600020906002020160000154610b28565b808061093a90611033565b9150506108cd565b50565b60b46000546109549190610f30565b421115610996576040517f08c379a000000000000000000000000000000000000000000000000000000000815260040161098d90610eb0565b60405180910390fd5b60046040518060400160405280838152602001600081525090806001815401808255809150506001900390600052602060002090600202016000909190919091506000820151816000015560208201518160010155505050565b610a8681604051602401610a049190610dd0565b6040516020818303038152906040527f41304fac000000000000000000000000000000000000000000000000000000007bffffffffffffffffffffffffffffffffffffffffffffffffffffffff19166020820180517bffffffffffffffffffffffffffffffffffffffffffffffffffffffff8381831617835250505050610bc4565b50565b610b23838383604051602401610aa193929190610df2565b6040516020818303038152906040527fe3849f79000000000000000000000000000000000000000000000000000000007bffffffffffffffffffffffffffffffffffffffffffffffffffffffff19166020820180517bffffffffffffffffffffffffffffffffffffffffffffffffffffffff8381831617835250505050610bc4565b505050565b610bc08282604051602401610b3e929190610eeb565b6040516020818303038152906040527f6c0f6980000000000000000000000000000000000000000000000000000000007bffffffffffffffffffffffffffffffffffffffffffffffffffffffff19166020820180517bffffffffffffffffffffffffffffffffffffffffffffffffffffffff8381831617835250505050610bc4565b5050565b60008151905060006a636f6e736f6c652e6c6f679050602083016000808483855afa5050505050565b600081359050610bfc8161122a565b92915050565b600081359050610c1181611241565b92915050565b600060208284031215610c2957600080fd5b6000610c3784828501610bed565b91505092915050565b600060208284031215610c5257600080fd5b6000610c6084828501610c02565b91505092915050565b610c7281610f86565b82525050565b610c8181610f98565b82525050565b6000610c9282610f14565b610c9c8185610f1f565b9350610cac818560208601610fce565b610cb5816110da565b840191505092915050565b6000610ccd601483610f1f565b9150610cd8826110eb565b602082019050919050565b6000610cf0602683610f1f565b9150610cfb82611114565b604082019050919050565b6000610d13601183610f1f565b9150610d1e82611163565b602082019050919050565b6000610d36602183610f1f565b9150610d418261118c565b604082019050919050565b6000610d59602c83610f1f565b9150610d64826111db565b604082019050919050565b610d7881610fc4565b82525050565b6000602082019050610d936000830184610c69565b92915050565b6000606082019050610dae6000830186610c78565b610dbb6020830185610d6f565b610dc86040830184610d6f565b949350505050565b60006020820190508181036000830152610dea8184610c87565b905092915050565b60006060820190508181036000830152610e0c8186610c87565b9050610e1b6020830185610d6f565b610e286040830184610c69565b949350505050565b60006020820190508181036000830152610e4981610cc0565b9050919050565b60006020820190508181036000830152610e6981610ce3565b9050919050565b60006020820190508181036000830152610e8981610d06565b9050919050565b60006020820190508181036000830152610ea981610d29565b9050919050565b60006020820190508181036000830152610ec981610d4c565b9050919050565b6000602082019050610ee56000830184610d6f565b92915050565b6000604082019050610f006000830185610d6f565b610f0d6020830184610d6f565b9392505050565b600081519050919050565b600082825260208201905092915050565b6000610f3b82610fc4565b9150610f4683610fc4565b9250827fffffffffffffffffffffffffffffffffffffffffffffffffffffffffffffffff03821115610f7b57610f7a61107c565b5b828201905092915050565b6000610f9182610fa4565b9050919050565b60008115159050919050565b600073ffffffffffffffffffffffffffffffffffffffff82169050919050565b6000819050919050565b60005b83811015610fec578082015181840152602081019050610fd1565b83811115610ffb576000848401525b50505050565b6000600282049050600182168061101957607f821691505b6020821081141561102d5761102c6110ab565b5b50919050565b600061103e82610fc4565b91507fffffffffffffffffffffffffffffffffffffffffffffffffffffffffffffffff8214156110715761107061107c565b5b600182019050919050565b7f4e487b7100000000000000000000000000000000000000000000000000000000600052601160045260246000fd5b7f4e487b7100000000000000000000000000000000000000000000000000000000600052602260045260246000fd5b6000601f19601f8301169050919050565b7f486173206e6f20726967687420746f20766f7465000000000000000000000000600082015250565b7f54696d6520657863656564656420666f7220766f74696e672e2056696577207260008201527f6573756c74730000000000000000000000000000000000000000000000000000602082015250565b7f48617320616c726561647920766f746564000000000000000000000000000000600082015250565b7f54696d65206e6f7420657863656564656420666f72207265676973746572696e60008201527f6700000000000000000000000000000000000000000000000000000000000000602082015250565b7f54696d6520657863656564656420666f722072656769737472696e672e204c6560008201527f74207468656d20566f7465210000000000000000000000000000000000000000602082015250565b61123381610f86565b811461123e57600080fd5b50565b61124a81610fc4565b811461125557600080fd5b5056fe766f746572732077656967687420697320257320616e6420766f74657273206164647265737320697320257320a2646970667358221220d274ce66774eacb1d7ac0617c3812d8efa3c778ca6d3de502d748e8014ea8b2164736f6c63430008040033",
  "linkReferences": {},
  "deployedLinkReferences": {}
}