{
  "_format": "hh-sol-artifact-1",
  "contractName": "Election",
  "sourceName": "contracts/Election.sol",
  "abi": [
    {
      "inputs": [],
      "stateMutability": "nonpayable",
      "type": "constructor"
    },
    {
      "anonymous": false,
      "inputs": [
        {
          "indexed": false,
          "internalType": "string",
          "name": "name",
          "type": "string"
        },
        {
          "indexed": false,
          "internalType": "uint256",
          "name": "voteCount",
          "type": "uint256"
        }
      ],
      "name": "ElectResults",
      "type": "event"
    },
    {
      "inputs": [
        {
          "internalType": "uint256",
          "name": "candidateId",
          "type": "uint256"
        }
      ],
      "name": "addCandidate",
      "outputs": [],
      "stateMutability": "payable",
      "type": "function"
    },
    {
      "inputs": [
        {
          "internalType": "address",
          "name": "voter",
          "type": "address"
        }
      ],
      "name": "authorize",
      "outputs": [],
      "stateMutability": "payable",
      "type": "function"
    },
    {
      "inputs": [
        {
          "internalType": "uint256",
          "name": "",
          "type": "uint256"
        }
      ],
      "name": "candids",
      "outputs": [
        {
          "internalType": "uint256",
          "name": "name",
          "type": "uint256"
        },
        {
          "internalType": "uint256",
          "name": "voteCount",
          "type": "uint256"
        }
      ],
      "stateMutability": "view",
      "type": "function"
    },
    {
      "inputs": [],
      "name": "chairperson",
      "outputs": [
        {
          "internalType": "address",
          "name": "",
          "type": "address"
        }
      ],
      "stateMutability": "view",
      "type": "function"
    },
    {
      "inputs": [],
      "name": "getCandidateCount",
      "outputs": [
        {
          "internalType": "uint256",
          "name": "",
          "type": "uint256"
        }
      ],
      "stateMutability": "view",
      "type": "function"
    },
    {
      "inputs": [
        {
          "internalType": "address",
          "name": "voter_address",
          "type": "address"
        }
      ],
      "name": "getVotersWeight",
      "outputs": [
        {
          "internalType": "uint256",
          "name": "",
          "type": "uint256"
        }
      ],
      "stateMutability": "view",
      "type": "function"
    },
    {
      "inputs": [],
      "name": "getWinner",
      "outputs": [],
      "stateMutability": "view",
      "type": "function"
    },
    {
      "inputs": [],
      "name": "name",
      "outputs": [
        {
          "internalType": "string",
          "name": "",
          "type": "string"
        }
      ],
      "stateMutability": "view",
      "type": "function"
    },
    {
      "inputs": [],
      "name": "showCandidate",
      "outputs": [],
      "stateMutability": "view",
      "type": "function"
    },
    {
      "inputs": [
        {
          "internalType": "uint256",
          "name": "voteIndex",
          "type": "uint256"
        }
      ],
      "name": "voteCandidate",
      "outputs": [],
      "stateMutability": "nonpayable",
      "type": "function"
    },
    {
      "inputs": [
        {
          "internalType": "address",
          "name": "",
          "type": "address"
        }
      ],
      "name": "voters",
      "outputs": [
        {
          "internalType": "bool",
          "name": "voted",
          "type": "bool"
        },
        {
          "internalType": "uint256",
          "name": "voteIndex",
          "type": "uint256"
        },
        {
          "internalType": "uint256",
          "name": "weight",
          "type": "uint256"
        }
      ],
      "stateMutability": "view",
      "type": "function"
    }
  ],
  "bytecode": "0x608060405234801561001057600080fd5b5033600160006101000a81548173ffffffffffffffffffffffffffffffffffffffff021916908373ffffffffffffffffffffffffffffffffffffffff1602179055506110b1806100616000396000f3fe60806040526004361061009c5760003560e01c80638e7ea5b2116100645780638e7ea5b214610188578063a3ec138d1461019f578063b6a5d7de146101de578063bbe4524e146101fa578063e2121b8914610238578063e844d0971461024f5761009c565b806306fdde03146100a15780632e4176cf146100cc57806330a56347146100f757806341a59cc8146101225780638c08a4dc1461015f575b600080fd5b3480156100ad57600080fd5b506100b661026b565b6040516100c39190610c31565b60405180910390f35b3480156100d857600080fd5b506100e16102f9565b6040516100ee9190610bdf565b60405180910390f35b34801561010357600080fd5b5061010c61031f565b6040516101199190610cf3565b60405180910390f35b34801561012e57600080fd5b5061014960048036038101906101449190610a78565b61032c565b6040516101569190610cf3565b60405180910390f35b34801561016b57600080fd5b5061018660048036038101906101819190610aa1565b610378565b005b34801561019457600080fd5b5061019d610679565b005b3480156101ab57600080fd5b506101c660048036038101906101c19190610a78565b6106f9565b6040516101d593929190610bfa565b60405180910390f35b6101f860048036038101906101f39190610a78565b610730565b005b34801561020657600080fd5b50610221600480360381019061021c9190610aa1565b61082f565b60405161022f929190610d0e565b60405180910390f35b34801561024457600080fd5b5061024d610863565b005b61026960048036038101906102649190610aa1565b6108de565b005b6002805461027890610e24565b80601f01602080910402602001604051908101604052809291908181526020018280546102a490610e24565b80156102f15780601f106102c6576101008083540402835291602001916102f1565b820191906000526020600020905b8154815290600101906020018083116102d457829003601f168201915b505050505081565b600160009054906101000a900473ffffffffffffffffffffffffffffffffffffffff1681565b6000600480549050905090565b6000600360008373ffffffffffffffffffffffffffffffffffffffff1673ffffffffffffffffffffffffffffffffffffffff168152602001908152602001600020600201549050919050565b60b46000546103879190610d53565b42116103c8576040517f08c379a00000000000000000000000000000000000000000000000000000000081526004016103bf90610cb3565b60405180910390fd5b61017c6000546103d89190610d53565b42111561041a576040517f08c379a000000000000000000000000000000000000000000000000000000000815260040161041190610c73565b60405180910390fd5b600360003373ffffffffffffffffffffffffffffffffffffffff1673ffffffffffffffffffffffffffffffffffffffff16815260200190815260200160002060000160009054906101000a900460ff16156104aa576040517f08c379a00000000000000000000000000000000000000000000000000000000081526004016104a190610c93565b60405180910390fd5b6000600360003373ffffffffffffffffffffffffffffffffffffffff1673ffffffffffffffffffffffffffffffffffffffff168152602001908152602001600020600201541415610530576040517f08c379a000000000000000000000000000000000000000000000000000000000815260040161052790610c53565b60405180910390fd5b6001600360003373ffffffffffffffffffffffffffffffffffffffff1673ffffffffffffffffffffffffffffffffffffffff16815260200190815260200160002060000160006101000a81548160ff02191690831515021790555080600360003373ffffffffffffffffffffffffffffffffffffffff1673ffffffffffffffffffffffffffffffffffffffff16815260200190815260200160002060010181905550600360003373ffffffffffffffffffffffffffffffffffffffff1673ffffffffffffffffffffffffffffffffffffffff168152602001908152602001600020600201546004828154811061064f577f4e487b7100000000000000000000000000000000000000000000000000000000600052603260045260246000fd5b9060005260206000209060020201600101600082825461066f9190610d53565b9250508190555050565b600160009054906101000a900473ffffffffffffffffffffffffffffffffffffffff1673ffffffffffffffffffffffffffffffffffffffff163373ffffffffffffffffffffffffffffffffffffffff16146106d357600080fd5b60005b6004805490508110156106f65780806106ee90610e56565b9150506106d6565b50565b60036020528060005260406000206000915090508060000160009054906101000a900460ff16908060010154908060020154905083565b600160009054906101000a900473ffffffffffffffffffffffffffffffffffffffff1673ffffffffffffffffffffffffffffffffffffffff163373ffffffffffffffffffffffffffffffffffffffff161461078a57600080fd5b600360008273ffffffffffffffffffffffffffffffffffffffff1673ffffffffffffffffffffffffffffffffffffffff16815260200190815260200160002060000160009054906101000a900460ff16156107e457600080fd5b6001600360008373ffffffffffffffffffffffffffffffffffffffff1673ffffffffffffffffffffffffffffffffffffffff1681526020019081526020016000206002018190555050565b6004818154811061083f57600080fd5b90600052602060002090600202016000915090508060000154908060010154905082565b60005b6004805490508110156108db576108c881600483815481106108b1577f4e487b7100000000000000000000000000000000000000000000000000000000600052603260045260246000fd5b906000526020600020906002020160000154610989565b80806108d390610e56565b915050610866565b50565b60b46000546108ed9190610d53565b42111561092f576040517f08c379a000000000000000000000000000000000000000000000000000000000815260040161092690610cd3565b60405180910390fd5b60046040518060400160405280838152602001600081525090806001815401808255809150506001900390600052602060002090600202016000909190919091506000820151816000015560208201518160010155505050565b610a21828260405160240161099f929190610d0e565b6040516020818303038152906040527f6c0f6980000000000000000000000000000000000000000000000000000000007bffffffffffffffffffffffffffffffffffffffffffffffffffffffff19166020820180517bffffffffffffffffffffffffffffffffffffffffffffffffffffffff8381831617835250505050610a25565b5050565b60008151905060006a636f6e736f6c652e6c6f679050602083016000808483855afa5050505050565b600081359050610a5d8161104d565b92915050565b600081359050610a7281611064565b92915050565b600060208284031215610a8a57600080fd5b6000610a9884828501610a4e565b91505092915050565b600060208284031215610ab357600080fd5b6000610ac184828501610a63565b91505092915050565b610ad381610da9565b82525050565b610ae281610dbb565b82525050565b6000610af382610d37565b610afd8185610d42565b9350610b0d818560208601610df1565b610b1681610efd565b840191505092915050565b6000610b2e601483610d42565b9150610b3982610f0e565b602082019050919050565b6000610b51602683610d42565b9150610b5c82610f37565b604082019050919050565b6000610b74601183610d42565b9150610b7f82610f86565b602082019050919050565b6000610b97602183610d42565b9150610ba282610faf565b604082019050919050565b6000610bba602c83610d42565b9150610bc582610ffe565b604082019050919050565b610bd981610de7565b82525050565b6000602082019050610bf46000830184610aca565b92915050565b6000606082019050610c0f6000830186610ad9565b610c1c6020830185610bd0565b610c296040830184610bd0565b949350505050565b60006020820190508181036000830152610c4b8184610ae8565b905092915050565b60006020820190508181036000830152610c6c81610b21565b9050919050565b60006020820190508181036000830152610c8c81610b44565b9050919050565b60006020820190508181036000830152610cac81610b67565b9050919050565b60006020820190508181036000830152610ccc81610b8a565b9050919050565b60006020820190508181036000830152610cec81610bad565b9050919050565b6000602082019050610d086000830184610bd0565b92915050565b6000604082019050610d236000830185610bd0565b610d306020830184610bd0565b9392505050565b600081519050919050565b600082825260208201905092915050565b6000610d5e82610de7565b9150610d6983610de7565b9250827fffffffffffffffffffffffffffffffffffffffffffffffffffffffffffffffff03821115610d9e57610d9d610e9f565b5b828201905092915050565b6000610db482610dc7565b9050919050565b60008115159050919050565b600073ffffffffffffffffffffffffffffffffffffffff82169050919050565b6000819050919050565b60005b83811015610e0f578082015181840152602081019050610df4565b83811115610e1e576000848401525b50505050565b60006002820490506001821680610e3c57607f821691505b60208210811415610e5057610e4f610ece565b5b50919050565b6000610e6182610de7565b91507fffffffffffffffffffffffffffffffffffffffffffffffffffffffffffffffff821415610e9457610e93610e9f565b5b600182019050919050565b7f4e487b7100000000000000000000000000000000000000000000000000000000600052601160045260246000fd5b7f4e487b7100000000000000000000000000000000000000000000000000000000600052602260045260246000fd5b6000601f19601f8301169050919050565b7f486173206e6f20726967687420746f20766f7465000000000000000000000000600082015250565b7f54696d6520657863656564656420666f7220766f74696e672e2056696577207260008201527f6573756c74730000000000000000000000000000000000000000000000000000602082015250565b7f48617320616c726561647920766f746564000000000000000000000000000000600082015250565b7f54696d65206e6f7420657863656564656420666f72207265676973746572696e60008201527f6700000000000000000000000000000000000000000000000000000000000000602082015250565b7f54696d6520657863656564656420666f722072656769737472696e672e204c6560008201527f74207468656d20566f7465210000000000000000000000000000000000000000602082015250565b61105681610da9565b811461106157600080fd5b50565b61106d81610de7565b811461107857600080fd5b5056fea26469706673582212202b68520379ff6f23b24bce5840557089cf91aee33658d2f9a5020de51aaad0ce64736f6c63430008040033",
  "linkReferences": {},
  "deployedLinkReferences": {}
}